:020000040800F2
:10000000000001202934000841310008493100086E
:10001000513100085931000861310008000000002A
:10002000000000000000000000000000693100082E
:100030007531000800000000813100088D31000892
:1000400079340008793400087934000879340008DC
:1000500079340008793400087934000879340008CC
:10006000793400087934000879340008993100089F
:10007000AD310008C1310008D5310008E931000870
:10008000FD3100087934000879340008793400081B
:10009000793400087934000879340008793400088C
:1000A00011320008793400087934000879340008E6
:1000B000793400087934000879340008793400086C
:1000C000793400087934000879340008793400085C
:1000D00025320008393200084D3200087934000812
:1000E000793400087934000879340008793400083C
:1000F000793400087934000879340008793400082C
:100100007934000879340008613200087934000835
:10011000793400087934000879340008793400080B
:1001200079340008793400087934000879340008FB
:0801300079340008793400085D
:1001400010B5054C237833B9044B13B10448AFF311
:1001500000800123237010BD680000200000000013
:10016000ACC8000808B5034B1BB103490348AFF303
:10017000008008BD000000006C000020ACC8000832
:1001800001F0FF01102A2BDB10F0070F08D010F848
:10019000013B013A8B422DD010F0070F42B3F6D14C
:1001A000F0B441EA012141EA014122F007047FF065
:1001B00000070023F0E80256083C85EA010586EABC
:1001C000010685FA47F5A3FA87F586FA47F6A5FAF8
:1001D00087F68EB9EED1F0BC01F0FF0102F0070204
:1001E00032B110F8013B013A83EA010313B1F8D1AF
:1001F0000020704701387047002D06BF3546033890
:10020000073815F0010F07D1013015F4807F02BFC8
:10021000013015F4C03F0130F0BC0138704700BF19
:1002200053B94AB9002908BF00281CBF4FF0FF315D
:100230004FF0FF3000F06AB9ADF1080C6DE904CE63
:1002400000F006F8DDF804E0DDE9022304B07047B1
:100250002DE9F047089D0C46002B4ED194468C4565
:100260008646B2FA82F262D94AB1C2F120039140C5
:1002700020FA03F30CFA02FC194300FA02FE4FEADB
:100280001C471FFA8CF6B1FBF7F44FEA1E4307FB3D
:10029000141143EA014304FB06F199420AD91CEB0D
:1002A000030304F1FF3080F01281994240F20F8184
:1002B000023C6344591A1FFA8EF3B1FBF7F007FBB7
:1002C000101143EA014300FB06F69E420AD91CEBDB
:1002D000030300F1FF3180F0FC809E4240F2F98080
:1002E000634402389B1B40EA044000211DB1D34007
:1002F0000022C5E90032BDE8F0878B4205D90DB177
:10030000C5E9000100210846F5E7B3FA83F10029A9
:1003100046D1A34202D39042C0F0F080861A64EB2B
:1003200003030120002DE6D0C5E90063E3E7002ABE
:1003300040F09080A1EB0C044FEA1C481FFA8CF7A8
:100340000121B4FBF8F64FEA1E4308FB164443EACA
:10035000044307FB06F0984208D91CEB030306F19F
:10036000FF3402D2984200F2CD8026461C1A1FFAB2
:100370008EF3B4FBF8F008FB104443EA044300FB9F
:1003800007F79F4208D91CEB030300F1FF3402D2A8
:100390009F4200F2B0802046DB1B40EA0640A5E702
:1003A000C1F120068B4022FA06F71F4320FA06FC13
:1003B00004FA01F343EA0C03F44000FA01F8380CA4
:1003C0004FEA1349B4FBF0FE1FFA87FC00FB1E4402
:1003D00049EA04440EFB0CF9A14502FA01F20AD9DC
:1003E0003C190EF1FF3A80F08480A14540F28180F3
:1003F000AEF1020E3C44A4EB09041FFA83F9B4FBEE
:10040000F0F300FB134449EA044403FB0CFCA4454D
:1004100007D93C1903F1FF3067D2A44565D9023BE7
:100420003C4443EA0E40A0FB0293A4EB0C049C4224
:10043000CE469C4651D34ED055B1B8EB0E0364EB7B
:100440000C0404FA06F6CB401E43CC40C5E9006418
:10045000002150E7C2F1200320FA03F10CFA02FC5C
:1004600024FA03F394400C434FEA1C4800FA02FEBE
:100470001FFA8CF7B3FBF8F008FB1031230C43EAAA
:10048000014300FB07F1994208D91CEB030300F17B
:10049000FF362CD299422AD9023863445B1AA4B29F
:1004A000B3FBF8F108FB113344EA034401FB07F303
:1004B000A34208D91CEB040401F1FF3613D2A34276
:1004C00011D902396444E41A41EA004139E704468B
:1004D000F0E6084606E7C845AED2B9EB020E63EB7C
:1004E000070C0138A8E73146EDE7034699E73046A7
:1004F000D4E7D6467FE7634402384DE706462346F5
:1005000008460FE7023E634430E700BF704700BF74
:1005100080B487B000AF78607B685A78144B1A704B
:1005200001237B6103233B617B6802331B78BB6043
:100530000023FB6011E03B697A68134419780C4A88
:100540007B6913440A461A707B6901337B613B69FE
:1005500001333B61FB680133FB60FA68BB689A4278
:10056000E9DB00BF00BF1C37BD4680BC704700BF41
:10057000B401002080B586B000AF78600B46FB70F8
:100580000023FB81FB781946786800F02BF90346BD
:10059000FB81224B7E221A7001237B6100233B6189
:1005A0000EE03B697A68134419781C4A7B6913444E
:1005B0000A461A707B6901337B613B6901333B61F9
:1005C000FB783A699A42ECDBFB891B0A9BB2D9B2F1
:1005D000124A7B6913440A461A707B6901337B61B6
:1005E000FB89D9B20D4A7B6913440A461A707B69AC
:1005F00001337B61094A7B6913447E221A7096227B
:10060000002107480BF0D2FC9622002105480BF090
:10061000CDFC00BF1837BD4680BD00BF14080020C8
:10062000840000201C01002080B586B000AF7860F7
:100630000B46FB707868FFF76BFF3A4B72221A701B
:10064000384B9C225A70374B64229A70354BA62245
:10065000DA70344B64221A71324B40225A71314B9A
:10066000E0229A712F4B7222DA712E4B9C221A7261
:100670002C4B64225A722B4BA6229A72294B64226D
:10068000DA72284B40221A73264B61225A73254B8B
:1006900003229A73234BF022DA7310237B61002329
:1006A0003B610EE0204A3B69134419781D4A7B697F
:1006B00013440A461A707B6901337B613B6901333D
:1006C0003B61FB783A699A42ECDB7969174800F0A4
:1006D0004FF8174800F04CF80023FB600AE0114A7D
:1006E000FB6813441B781946124800F041F8FB6878
:1006F0000133FB60FA687B699A42F0DB0C4800F03A
:1007000037F87A690C49074800F0ABF8B860BB6865
:10071000DBB219460848FFF72DFF00BF1837BD466A
:1007200080BD00BF84000020B4010020C4C80008C0
:10073000DCC80008E0C800081C01002080B485B0B7
:1007400000AF7860094B1B6800225A6202E0FB6828
:100750000133FB60054B1B685B6A7A689A42F6D8E6
:1007600000BF00BF1437BD4680BC7047D0060020D4
:100770000FB480B582B000AF07F114033B603B6853
:100780003A6964210A480BF003FC094800F014F8A8
:1007900078607B689AB24FF47A730549054806F091
:1007A000CDF900BF0837BD46BDE8804004B07047B2
:1007B000180200201003002080B485B000AF7860DC
:1007C0000023FB6002E0FB680133FB607B685A1C7E
:1007D0007A601B78002BF6D1FB6818461437BD46AB
:1007E00080BC704780B487B000AF786039604FF646
:1007F000FF73FB8241F221037B8100233B6126E0F2
:100800007A683B6913441B781B021AB2B7F9163099
:1008100053401BB2FB820023FB6012E0B7F9163095
:10082000002B08DAFB8A5B001AB2B7F90A30534092
:100830001BB2FB8202E0FB8A5B00FB82FB68013398
:10084000FB60FB68072BE9DD3B6901333B613A69DB
:100850003B689A42D4D3FB8A18461C37BD4680BCFD
:10086000704780B48FB000AFF860B9607A60002341
:100870007B6300233B63002387F82F300723BB6291
:1008800000237B6200233B620023FB6178E00723A7
:10089000BB616FE0FB69FA6813441B781A46BB69B9
:1008A00042FA03F303F001037B617A69BB6A02FA3F
:1008B00003F35AB297F92F3013435BB287F82F3006
:1008C000BB6A013BBB627B69002B2FD03B6B0133C2
:1008D0003B633B6B052B2BD1BB6A002B10DA7B6B88
:1008E0005A1C7A631A46BB68134497F82F201A7073
:1008F0007B6A01337B62002387F82F300723BB62BA
:100900000122BB6A02FA03F35BB2DB435AB297F9E6
:100910002F3013405BB287F82F30BB6A013BBB62BC
:100920003B6A01333B6200233B6301E000233B63EE
:10093000BB6A002B10DA7B6B5A1C7A631A46BB68C1
:10094000134497F82F201A707B6A01337B620023CF
:1009500087F82F300723BB623B6A082B07DDBB6A91
:10096000002B04DB7B6A01337B6200233B62BB69A3
:10097000013BBB61BB69002B8CDAFB690133FB6176
:10098000FA697B689A4282DBBB6A062B0BDC7B6BC5
:100990005A1C7A631A46BB68134497F82F201A70C2
:1009A0007B6A01337B627B6B18463C37BD4680BC5B
:1009B000704780B48DB000AFF860B9607A600023F2
:1009C000FB620023BB62002387F8273007233B62CA
:1009D0000023FB6152E00723BB6149E0FB69FA6831
:1009E00013441B781A46BB6942FA03F303F0010370
:1009F0007B617B69002B11D0BB6A0133BB627A69D2
:100A00003B6A02FA03F35AB297F9273013435BB2F9
:100A100087F827303B6A013B3B6215E0BB6A052B38
:100A200002D10023BB6220E00023BB627A693B6AEB
:100A300002FA03F35AB297F9273013435BB287F8EF
:100A400027303B6A013B3B623B6A002B0DDAFB6AB5
:100A50005A1CFA621A46BB68134497F827201A708A
:100A6000002387F8273007233B62BB69013BBB614A
:100A7000BB69002BB2DAFB690133FB61FA697B6861
:100A80009A42A8DB3B6A062B08DCFB6A5A1CFA6216
:100A90001A46BB68134497F827201A70FB6A184659
:100AA0003437BD4680BC704780B485B000AF7860F5
:100AB0000023FB737B6801331B78B22B1ED0B22B53
:100AC0002EDCB12B17D0B12B2ADC0D2B10DC0A2B1E
:100AD00026DB0A3B032B23D801A252F823F000BFE8
:100AE000090B00080F0B0008150B00081B0B000872
:100AF000AC2B06D014E00123FB7313E00123FB733E
:100B000010E00123FB730DE00123FB730AE00123D6
:100B1000FB7307E00123FB7304E00123FB7301E097
:100B20000023FB73FB7B18461437BD4680BC70471F
:100B300080B485B000AF78604FF0B0439A6C4FF04E
:100B4000B0417B6813438B644FF0B0439A6C7B6871
:100B50001340FB60FB6800BF1437BD4680BC704784
:100B600080B485B000AF78604FF0B043DA6C4FF0DE
:100B7000B0417B681343CB644FF0B043DA6C7B68C1
:100B80001340FB60FB6800BF1437BD4680BC704754
:100B900080B485B000AF78607B68384A934267D1F3
:100BA000374B1B680133364A1360354B1B68B3F56E
:100BB0007A7F0CD3334B1B680133324A1360324BBC
:100BC0001B680133304A13602D4B00221A602D4BF5
:100BD0001B683C2B07D92D4B1B6801332B4A136034
:100BE000284B00221A60284B1B68012B40D1264B52
:100BF00000221A60264B53221A70254B0A225A7083
:100C0000234B51229A700323FB600123BB600CE04D
:100C1000BB68D9B21E4AFB6813440A461A70FB68C7
:100C20000133FB60BB680133BB60BB684F2BEFDD5A
:100C3000184B1B68D9B2164AFB6813440A461A704F
:100C4000144B1B680133134A1360FB680133104ACD
:100C50000021D1540E4B9A780F4B1A700D4B1B6824
:100C60000A2B02D10B4B00221A600C4B01221A6096
:100C700000BF1437BD4680BC704700BF840600200B
:100C800060090020640900206C0900206809002028
:100C9000B807002074090020B607002010080020C3
:100CA00080B487B000AF7860396000237B61002397
:100CB0003B610023FB600023BB6013E0BB687A68E4
:100CC00013441B787E2B0AD17B69002B04D10123AE
:100CD0007B61BB683B6102E0BB68FB6006E0BB6810
:100CE0000133BB60BA683B689A42E7DBFA683B694C
:100CF0009A4204DDFA683B69D31A013301E04FF0F0
:100D0000FF3318461C37BD4680BC704780B582B0A3
:100D100000AF0346FB71114B00221A700F4AFB799A
:100D200013720E4B08225A800C4B04221A710B4B83
:100D300018225A71094B00229A71084B0022DA716D
:100D4000064BF2225A72054B01229A7203480AF0AE
:100D500007F900BF0837BD4680BD00BF1C07002053
:100D600080B582B000AF786039600B4B00221A70FA
:100D7000094B0D225A73084A7B685360064A3B6848
:100D80009360054B0B221A7303480AF017F800BF53
:100D90000837BD4680BD00BF3007002080B584B055
:100DA00000AF78600B46FB70002100200AF076F956
:100DB000FB781946786809F057FB154A07F10803D4
:100DC00092E8030083E8030007F10803184609F0DE
:100DD00090FB40F2FF1009F0DBFB01230122002110
:100DE000072009F033FE02220E21012009F018FF2E
:100DF000084809F0E7FA0023002240F20F2140F2F0
:100E00000F2009F045FE00BF1037BD4680BD00BF72
:100E1000E8C80008011B000880B588B000AF786002
:100E20007B68984A934208D07B68974A934204D0E3
:100E30007B68964A934240F01582954B1B68002BC5
:100E400000F010820023FB72924B1B78FA7A9A42D0
:100E500003D0904B1B78532B11D00023FB610BE088
:100E6000FB6901338B4AD15C8A4AFB6913440A4609
:100E70001A70FB690133FB61FB69542BF0D985487B
:100E8000FFF712FE0346844A1360834B1B68002B56
:100E900000F09D81814B1B68012B40F03D81804B10
:100EA0001B68002B40F038817E4B1B68012B40F003
:100EB00033817D4B00221A60764B1B78532B40F018
:100EC000A180744B93F853307E2B40F09B80774881
:100ED000FFF74EFC6F4B9A78754B1A706D4B5A7832
:100EE000744B1A70744B01221A60714B1B781946AF
:100EF0006848FFF799FB96217048FFF7D1FE03463B
:100F00006F4A13600023BB610BE06C4ABB6913445A
:100F100019786C4ABB6913440A461A70BB690133DD
:100F2000BB61674B1B68BA699A42EEDB604B1B786A
:100F30001A46002157480BF039F8962200215F48E5
:100F40000BF034F86048FFF7F9FB5D4B1B68DBB230
:100F50001846FFF7DBFE40F6B8314FF49660FFF716
:100F6000FFFE574B1B68DBB219465648FFF716FFCA
:100F70005648FFF7FDFB56495648FFF7F9FB564B1D
:100F80005B6819465548FFF7F3FB534B9B681946BE
:100F90005348FFF7EDFB504B5B7B19465148FFF779
:100FA000E7FB514B1B7819465048FFF7E1FB4E4BCE
:100FB0001B7A19464E48FFF7DBFB4B4B5B88194603
:100FC0004C48FFF7D5FB484B1B7919464A48FFF7B9
:100FD000CFFB454BDB7919464848FFF7C9FB48482A
:100FE000FFF7C6FB3A4809F0AFFD012101200AF0E6
:100FF000F3F9334B1B68DBB200221946314809F084
:1010000065FA20E13F48FFF7B3FB3F4B1B781A46D8
:101010004FF4FA631F491B4805F090FD0346002B6F
:101020000CD0394B1B781A464FF4FA63194916480D
:1010300005F084FD0346002B40F00581552133481F
:10104000FFF796FB00237B610AE0124A7B69134499
:101050001B7819462E48FFF78BFB7B6901337B61B8
:101060007B69542BF1D92B48FFF782FB55220021D5
:1010700008480AF09BFF0C4B00221A600E4B00221E
:101080001A60E0E0A40300207C020020100300208E
:1010900048090020B80700205C0900204C09002006
:1010A000040000205809002010080020F0C80008A3
:1010B000B607002050090020540900201408002021
:1010C00044090020AC08002020A1070020C9000826
:1010D00018D0111A4CC900083007002074C9000844
:1010E00084C90008A0C900081C070020BCC900086A
:1010F000D0C90008E8C9000800CA000818CA0008DA
:101100002CCA000858CA0008010000208CCA000838
:10111000CCCA0008D4CA0008544B1B78532B1AD1F0
:10112000524B93F853307E2B15D1504B9A78504B3D
:101130001A704E4B5A784F4B1A704E4B1B78B12B8E
:1011400005D14D4B02221A604C4B02221A604C4BC7
:1011500001221A6078E04B48FFF70AFB4A4B1B78E4
:101160001A464FF4FA634149484805F0E7FC034644
:10117000002B0BD0444B1B781A464FF4FA633B49C3
:10118000434805F0DBFC0346002B5DD15521414867
:10119000FFF7EEFA00233B610AE0344A3B6913444F
:1011A0001B7819463C48FFF7E3FA3B6901333B6182
:1011B0003B69542BF1D93948FFF7DAFA552200215F
:1011C0002A480AF0F3FE2E4B00221A603CE0344815
:1011D000FFF7CEFA2C4B1B781A464FF47A7323494B
:1011E0002A4805F0ABFC0346002B0BD0264B1B789E
:1011F0001A464FF47A731D49254805F09FFC0346B3
:10120000002B21D155212348FFF7B2FA0023FB60C0
:101210000AE0164AFB6813441B7819461E48FFF77C
:10122000A7FAFB680133FB60FB68542BF1D91B481C
:10123000FFF79EFA552200210C480AF0B7FE104B2A
:1012400000221A6000E000BF0F4B1B781A460749C6
:101250000E4805F0BDFD0C4B1B781A4603490C489F
:1012600005F0B6FD00BF2037BD4680BDB8070020A1
:10127000B6070020500900200400002008000020CC
:1012800010080020D8CA000801000020A403002094
:101290007C02002004CB0008CCCA0008D4CA000895
:1012A0003CCB000880B584B002AF02F0E7F800F054
:1012B0009BF900F0CBFB00F08FFB00F08DFA00F003
:1012C000F3F900F03DFA0AF0C6FA00F037FB00F03F
:1012D000E1FA9C4804F084FF9B48FFF749FA9B48D9
:1012E000FFF746FA9A48FFF743FA9A4A9A499B4809
:1012F000FFF73EFA9A48FFF73BFA0E2300930123CB
:10130000002207219748FFF733FA9748FFF730FA92
:10131000964B01221A6001E001F060FB934B1B68C1
:10132000002BF9D0924B1B781846FFF7EFFC40F6E4
:10133000B8314FF49660FFF713FD8D4B1B781946BB
:101340008C48FFF72BFD8C48FFF712FA8B48FFF70C
:101350000FFA8B48FFF70CFA8A48FFF709FA7D4924
:101360008948FFF705FA894B5B6819468848FFF7FB
:10137000FFF9864B9B6819468648FFF7F9F9834BBE
:101380005B7B19468448FFF7F3F9844B1B781946B9
:101390008348FFF7EDF9814B1B7A19468148FFF727
:1013A000E7F97E4B5B8819467F48FFF7E1F97B4BF5
:1013B0001B7919467D48FFF7DBF9784BDB79194635
:1013C0007B48FFF7D5F97B48FFF7D2F9614809F070
:1013D000BBFB0021012009F0FFFF6FF07F4009F007
:1013E000DFF9754B1B781A467449754805F0F0FC17
:1013F000714B1B781A467149724805F0E9FC0AF0F6
:1014000032FA7148FFF79AF9704B1B68002B00F015
:1014100089806F4B1B7819466848FFF705F99621BC
:101420006C48FFF73DFC03466B4A136000237B606A
:101430000BE0684A7B6813441978684A7B68134458
:101440000A461A707B6801337B60634B1B687A68BD
:101450009A42EEDB5E4B1B781A46002157480AF091
:10146000A5FD962200215B480AF0A0FD5A4B1B689F
:10147000DBB21846FFF74AFC42F6E0614FF49650A3
:10148000FFF76EFC544B1B68DBB219465348FFF75D
:1014900085FC5348FFF76CF92F495248FFF768F96C
:1014A0003A4B5B6819463A48FFF762F9374B9B683D
:1014B00019463848FFF75CF9344B5B7B19463648D0
:1014C000FFF756F9354B1B7819463548FFF750F9A9
:1014D000324B1B7A19463348FFF74AF92F4B5B888A
:1014E00019463148FFF744F92C4B1B7919462F4810
:1014F000FFF73EF9294BDB7919462D48FFF738F9FC
:101500002C48FFF735F9144809F01EFB0121012092
:1015100009F062FF304B1B68DBB2002219462F48EE
:1015200008F0D4FF244B1B781A462449244805F0C0
:101530004FFC214B1B781A462049224805F048FCF5
:101540005DE700BFD00600206CCB0008A8CB0008E8
:10155000DCCB00086859F21918D0111AF8CB000832
:1015600038CC000860CC0008B4CC00084809002042
:10157000000000204C070020E0CC000828CD000827
:1015800048CD000868CD000894CD00083007002041
:1015900074C9000884C90008A0C900081C070020FD
:1015A000BCC90008D0C90008E8C9000800CA000882
:1015B00018CA00082CCA000801000020B807002043
:1015C000A40300207C02002020A1070010080020B6
:1015D000B60700201408002044090020AC080020B1
:1015E00020C900084CC9000880B59AB000AF07F1C7
:1015F00020034822002118460AF0D8FC3B1D002297
:101600001A605A609A60DA601A615A619A61254BD1
:101610001B6823F4C063234A43F400731360214B17
:101620001B6803F4C0633B603B6801233B624FF4DB
:1016300004137B620023BB620223FB6403233B652C
:1016400010237B650623BB654FF40033FB654FF029
:1016500000537B664FF000733B6607F1200318468A
:1016600003F050F80346002B01D001F0B1F94F23ED
:101670007B600323BB600023FB6000233B610023EE
:101680007B610023FB613B1D0221184603F0BCFB7C
:101690000346002B01D001F09BF900BF6837BD461F
:1016A00080BD00BF0004005880B500AF224B234A24
:1016B0001A60214B4FF4E1325A601F4B00229A60AE
:1016C0001D4B0022DA601C4B00221A611A4B0C22BF
:1016D0005A61194B00229A61174B00221A62164B6D
:1016E00000225A62144B00229A62134B00225A665F
:1016F000114805F0D3F90346002B01D001F068F939
:1017000000210D4806F0FAFD0346002B01D001F040
:101710005FF90021084806F02FFE0346002B01D098
:1017200001F056F9044806F0B1FD0346002B01D044
:1017300001F04EF900BF80BD7C0200200080004017
:1017400080B500AF224B234A1A60214B4FF4E1329F
:101750005A601F4B00229A601D4B0022DA601C4B1E
:1017600000221A611A4B0C225A61194B00229A610D
:10177000174B0022DA61164B00221A62144B00222A
:101780005A62134B00229A62114805F087F903460A
:10179000002B01D001F01CF900210D4806F0AEFD30
:1017A0000346002B01D001F013F90021084806F090
:1017B000E3FD0346002B01D001F00AF9044806F0CE
:1017C00065FD0346002B01D001F002F900BF80BD8A
:1017D000100300200038014080B500AF224B234A9F
:1017E0001A60214B4FF4E1325A601F4B00229A607D
:1017F0001D4B0022DA601C4B00221A611A4B0C228E
:101800005A61194B00229A61174B0022DA61164B7C
:1018100000221A62144B00225A62134B00229A6271
:10182000114805F03BF90346002B01D001F0D0F838
:1018300000210D4806F062FD0346002B01D001F0A7
:10184000C7F80021084806F097FD0346002B01D099
:1018500001F0BEF8044806F019FD0346002B01D044
:1018600001F0B6F800BF80BDA40300200044004092
:1018700080B500AF064B08221A60054804F038F81E
:101880000346002B01D001F0A3F800BF80BD00BFCC
:101890007806002080B588B000AF07F11003002261
:1018A0001A605A609A60DA603B1D00221A605A6022
:1018B0009A60204B204A1A601E4B2F225A601D4B03
:1018C00000229A601B4B40F2E732DA60194B00228B
:1018D0001A61184B00225A61164B00229A61154872
:1018E00004F026FC0346002B01D001F071F84FF400
:1018F00080533B6107F1100319460E4804F04DFE7A
:101900000346002B01D001F063F800237B60002325
:10191000BB600023FB603B1D1946064805F024F818
:101920000346002B01D001F053F800BF2037BD461D
:1019300080BD00BF84060020002C014080B588B027
:1019400000AF07F1100300221A605A609A60DA6053
:101950003B1D00221A605A609A601D4B4FF0804276
:101960001A601B4B2F225A60194B00229A60184BA9
:10197000184ADA60164B00221A61154B80229A61D0
:10198000134804F0D5FB0346002B01D001F020F8EA
:101990004FF480533B6107F1100319460C4804F0E3
:1019A000FCFD0346002B01D001F012F800237B6000
:1019B0000023FB603B1D1946054804F0D5FF034694
:1019C000002B01D001F004F800BF2037BD4680BDD8
:1019D000D006002040420F0080B500AF0420FFF782
:1019E000A7F80120FFF7A4F8002200210B2001F046
:1019F00088FE0B2001F09FFE002200210C2001F048
:101A000080FE0C2001F097FE002200210D2001F045
:101A100078FE0D2001F08FFE002200210E2001F043
:101A200070FE0E2001F087FE002200210F2001F041
:101A300068FE0F2001F07FFE00220021102001F03F
:101A400060FE102001F077FE00BF80BD80B586B03B
:101A500000AF3B1D00221A605A609A60DA601A617A
:101A60000120FFF77DF80220FFF77AF80420FFF746
:101A700077F800224FF40A411F4802F059FB002278
:101A800038211E4802F054FB4FF40A437B600123C7
:101A9000BB600023FB6002233B613B1D19461648D7
:101AA00002F0E6F938237B600123BB600023FB6072
:101AB00003233B613B1D1946104802F0D9F903236B
:101AC0007B604FF40413BB600123FB603B1D194690
:101AD0004FF0904002F0CCF940237B604FF40413A8
:101AE000BB600123FB603B1D1946044802F0C0F9AE
:101AF00000BF1837BD4680BD0004004800080048FC
:101B00002DE9F04FBBB000AF0346FB84FB8C012BEB
:101B100040F0D880934B00221A60934B1B6801332E
:101B2000914A1360904B1B680A2B05D18E4B002203
:101B30001A608E4804F0E4FB8D4B1B6819468D48F3
:101B4000FEF716FE0023C7F8E4300DE08A4AD7F806
:101B5000E43013441B7819468848FEF709FED7F88D
:101B6000E4300133C7F8E430814B1B68D7F8E42038
:101B70009A42EBDB8248FEF7FBFD962200217E486D
:101B80000AF014FA7F4B1B78B12B03D07D4B1B78E6
:101B9000B22B0CD17C4B1B68013B7B4A13607B4B07
:101BA0001B68013B794A1360764A00231370784B17
:101BB0001B68002B0ED0744B02221A60694B002266
:101BC0001A60744B00221A60714B00221A60724B2B
:101BD00000221A606C4B1B68002B09D1614B00225C
:101BE0001A606C4B01221A606C48FEF7C1FD02E0DE
:101BF000684B00221A606A48FEF7A0FD694B1B780B
:101C00001846FFF783F840F6B8314FF49660FFF7B7
:101C1000A7F8644B1B7819466348FFF7BFF8634881
:101C2000FEF7A6FD62496348FEF7A2FD624B5B68C2
:101C300019466248FEF79CFD5F4B9B681946604859
:101C4000FEF796FD5C4B5B7B19465E48FEF790FD08
:101C50005D4B1B7819465D48FEF78AFD5A4B1B7A8F
:101C600019465B48FEF784FD574B5B881946594877
:101C7000FEF77EFD544B1B7919465748FEF778FD59
:101C8000514BDB7919465548FEF772FD5448FEF773
:101C90006FFD474808F058FF0021012009F09CFB28
:101CA0006FF07F4008F07CFD4E4B1B781A464E4982
:101CB0004E4805F08DF84B4B1B781A464A494C4864
:101CC00005F086F8FB8C022B40F0638669223549CB
:101CD000354808F0D9FB09F0F8F90346DBB2454A6C
:101CE00013704548FEF744FD002387F8B7302D4BAD
:101CF0001B7819462C48FEF7D3FF034687F8B73008
:101D00006B46994697F8B7804346013BC7F8B03019
:101D10005FFA88F300221C4615464FF000024FF090
:101D20000003EB0043EA5473E2005FFA88F30022F9
:101D30009A4693464FF000024FF000034FEACB0360
:101D400043EA5A734FEACA0243460733DB08DB0013
:101D5000ADEB030D6B460033C7F8AC300023C7F87A
:101D6000E03066E0100800207009002084060020A2
:101D700044090020BCCD0008AC080020CCCA0008F3
:101D8000D4CA0008500900200400002008000020E8
:101D9000540900204C09002058090020F4CD000807
:101DA00020A10700000000204C07002068CD00089B
:101DB0006859F21994CD00083007002074C9000852
:101DC00084C90008A0C900081C070020BCC900087D
:101DD000D0C90008E8C9000800CA000818CA0008ED
:101DE0002CCA000801000020B8070020A40300202E
:101DF0007C020020B50700202CCE0008B34AD7F89B
:101E0000E03013441978D7F8AC20D7F8E030134409
:101E10000A461A70D7F8AC20D7F8E03013441B7884
:101E20001946AB48FEF7A4FCD7F8E0300133C7F8F9
:101E3000E03097F8B730D7F8E0209A42DEDBA548CB
:101E4000FEF796FC69220021A0480AF0AFF897F847
:101E5000B730043B87F8AB3097F8AB502B46013BCB
:101E6000C7F8A430EBB20022BB61FA614FF0000268
:101E70004FF00003D7E906AB5946CB00544643EA7E
:101E800054735146CA00EBB200223B617A614FF0B5
:101E900000024FF00003D7E904AB5946CB0054468B
:101EA00043EA54735146CA002B460733DB08DB0074
:101EB000ADEB030D6B460033C7F8A0300023C7F825
:101EC000DC300123C7F8D83016E0D7F8AC20D7F8BB
:101ED000D83013441978D7F8A020D7F8DC30134451
:101EE0000A461A70D7F8DC300133C7F8DC30D7F86F
:101EF000D8300133C7F8D83097F8AB30D7F8D820AE
:101F00009A42E2DD7348FEF733FC0023A7F89E30C7
:101F100097F8AB301946D7F8A000FEF763FC0346EC
:101F2000A7F89E30B7F89E301B0A9BB2DBB287F849
:101F30008C30B7F89E30DBB287F88D3097F8B73029
:101F4000033BD7F8AC20D35C87F89D3097F8B730C7
:101F5000023BD7F8AC20D35C87F89C3097F88C30E4
:101F600097F89D209A4240F0DE8497F88D3097F8DC
:101F70009C209A4240F0D7846B461E4697F8AB20CF
:101F800007F128031946D7F8A000FEF712FDC7F89D
:101F90009800D7F89830013BC7F89830D7F89840A8
:101FA000631EC7F8943022460023BA60FB604FF0EE
:101FB00000024FF00003D7E902AB5946CB00D446EC
:101FC00043EA5C735146CA00224600233A607B60B4
:101FD0004FF000024FF00003D7E900AB5946CB00A9
:101FE000D44643EA5C735146CA0023460733DB08F4
:101FF000DB00ADEB030D6B460033C7F890300023D8
:10200000C7F8D43011E007F12802D7F8D4301344D0
:102010001978D7F89020D7F8D43013440A461A70AC
:10202000D7F8D4300133C7F8D430D7F8D420D7F854
:1020300098309A42E7DB284B01221A60264B1B6836
:10204000012B40F04381D7F890309B7CDF2B09D1E6
:10205000D7F89030DB7CAB2B04D1D7F890301B7DC8
:10206000D12B0ED0D7F890309B7C532B3ED1D7F894
:102070009030DB7C022B39D1D7F890301B7D532B6D
:1020800034D11648FEF774FB154B53221A70144BCB
:10209000AC225A70124B04229A70114B0222DA7051
:1020A0000F4BFC221A710E4BEE225A710C4B9A7890
:1020B0000C4B1A700C4B01221A6023461A46002161
:1020C000D7F8900009F072FF00F02BBC4C070020FD
:1020D000CCCA0008D4CA0008080000204CCE000872
:1020E000B8070020B607002010080020D7F890306D
:1020F0009B7CFD2B40F08D80D7F89030DB7CBA2B99
:1021000040F08780D7F890301B7DD02B40F0818045
:10211000BD4B02221A60BD4B00221A60BC4B00224C
:102120001A60BC4B00221A60BB48FEF721FBBB4B78
:1021300053221A70B94BAC225A70B84B04229A70D1
:10214000B64B0222DA70B54B00221A71B34BDD2276
:102150005A71B24B9A78B24B1A70D7F89810B148AE
:10216000FEF706FBA2B24FF4FA63D7F89010AE4820
:1021700004F0E4FC0346002B0AD0A2B24FF4FA6349
:10218000D7F89010A94804F0D9FC0346002B3CD0A6
:102190000023C7F8D0300EE0D7F89020D7F8D03021
:1021A00013441B781946A248FEF7E2FAD7F8D0305C
:1021B0000133C7F8D030D7F8D020D7F898309A42FA
:1021C000EADB9C48FEF7D4FA23461A460021D7F8EA
:1021D000900009F0EBFE69220021974809F0E6FE25
:1021E00043461A460021D7F8AC0009F0DFFE2B4623
:1021F0001A460021D7F8A00009F0D8FE07F12803FD
:1022000064220021184609F0D1FE804B01221A6099
:1022100087E3D7F898108348FEF7AAFAA2B24FF4E2
:10222000FA63D7F89010804804F088FC0346002B2E
:102230000BD0A2B24FF4FA63D7F890107B4804F0A9
:102240007DFC0346002B00F06C830023C7F8CC30E4
:102250000EE0D7F89020D7F8CC3013441B781946FD
:102260007348FEF785FAD7F8CC300133C7F8CC3085
:10227000D7F8CC20D7F898309A42EADB6F4803F0C1
:10228000F3FF23461A460021D7F8900009F08EFE8E
:1022900069220021684809F089FE43461A46002158
:1022A000D7F8AC0009F082FE2B461A460021D7F879
:1022B000A00009F07BFE07F12803642200211846E4
:1022C00009F074FE5E48FEF753FA2AE35D4B1B6883
:1022D000002B40F026834E4B1B68012B40F04481BD
:1022E000D7F890309B7CFD2B40F0AE80D7F8903033
:1022F000DB7CBA2B40F0A880D7F890301B7DD02B28
:1023000040F0A280404B02221A60404B00221A602B
:102310003F4B00221A603F4B00221A603E48FEF7F6
:1023200027FA3E4B53221A703C4BAC225A703B4B5F
:1023300004229A70394B0222DA70384B00221A714B
:10234000364BDD225A71354B9A78354B1A70D7F8D7
:1023500098103448FEF70CFAA2B24FF4FA63D7F89B
:102360009010314804F0EAFB0346002B0AD0A2B2D9
:102370004FF4FA63D7F890102C4804F0DFFB0346C3
:10238000002B3CD00023C7F8C8300EE0D7F89020CF
:10239000D7F8C83013441B7819462548FEF7E8F9EA
:1023A000D7F8C8300133C7F8C830D7F8C820D7F8F5
:1023B00098309A42EADB1F48FEF7DAF923461A46BC
:1023C0000021D7F8900009F0F1FD692200211A4898
:1023D00009F0ECFD43461A460021D7F8AC0009F09D
:1023E000E5FD2B461A460021D7F8A00009F0DEFDD6
:1023F00007F1280364220021184609F0D7FD034B9A
:1024000001221A608DE200BF0400002010080020A5
:102410004C0900205409002070CE0008B8070020A5
:10242000B607002090CE0008A40300207C02002004
:10243000CCCA0008D4CA00084C070020840600203B
:10244000B4CE000808000020D7F890309B7C532BB6
:1024500066D1D7F89030DB7C022B61D1D7F8903071
:102460001B7D532B5CD1D7F89810B748FEF780F945
:10247000A2B24FF4FA63D7F89010B44804F05EFBB0
:102480000346002B0BD0A2B24FF4FA63D7F890109A
:10249000AF4804F053FB0346002B00F03F820023BB
:1024A000C7F8C4300EE0D7F89020D7F8C4301344F2
:1024B0001B781946A748FEF75BF9D7F8C4300133FB
:1024C000C7F8C430D7F8C420D7F898309A42EADB6E
:1024D000A148FEF74DF923461A460021D7F890008F
:1024E00009F064FD692200219C4809F05FFD434624
:1024F0001A460021D7F8AC0009F058FD2B461A46C1
:102500000021D7F8A00009F051FD07F1280364224B
:102510000021184609F04AFD9148FEF729F9FDE12E
:102520009048FEF725F9904B53221A708E4BAC223F
:102530005A708D4B04229A708B4B0222DA708A4BB0
:10254000FC221A71884BEE225A71874B9A78874B7E
:102550001A70874B01221A6023461A460021D7F8C9
:10256000900009F023FDDCE1824B1B68002B40F05A
:10257000D881D7F890309B7CFD2B40F08D80D7F828
:102580009030DB7CBA2B40F08780D7F890301B7DF1
:10259000D02B40F08180784B02221A60744B0022CD
:1025A0001A60744B00221A60744B00221A6074483F
:1025B000FEF7DEF86C4B53221A706B4BAC225A704C
:1025C000694B04229A70684B0222DA70664B002233
:1025D0001A71654BDD225A71634B9A78634B1A70FE
:1025E000D7F898106748FEF7C3F8A2B24FF4FA6321
:1025F000D7F89010554804F0A1FA0346002B0AD0F2
:10260000A2B24FF4FA63D7F89010514804F096FA4A
:102610000346002B3CD00023C7F8C0300EE0D7F8AB
:102620009020D7F8C03013441B7819464948FEF76C
:102630009FF8D7F8C0300133C7F8C030D7F8C020B2
:10264000D7F898309A42EADB4348FEF791F82346E0
:102650001A460021D7F8900009F0A8FC6922002151
:102660003E4809F0A3FC43461A460021D7F8AC00C7
:1026700009F09CFC2B461A460021D7F8A00009F06F
:1026800095FC07F1280364220021184609F08EFC0E
:10269000374B01221A6044E1D7F890309B7CDF2B46
:1026A00040F0B080D7F89030DB7CAB2B40F0AA80B4
:1026B000D7F890301B7DD12B40F0A4802E4B002208
:1026C0001A602B4B00221A602A4B01221A602E4BF3
:1026D00001221A602D48FEF74BF8234B53221A7043
:1026E000214BAC225A70204B04229A701E4B0222BE
:1026F000DA701D4B01221A711B4BDD225A711A4BE5
:102700009A781A4B1A70D7F898101E48FEF730F8CE
:10271000A2B24FF4FA63D7F890100C4804F00EFA06
:102720000346002B0BD0A2B24FF4FA63D7F89010F7
:10273000074804F003FA0346002B00F0F180002361
:10274000C7F8BC3033E000BFD0CE0008A40300209F
:102750007C020020CCCA0008D4CA00084C07002024
:1027600000CF00084CCE0008B8070020B6070020B4
:10277000100800204C09002004000020540900200B
:1027800070CE000890CE00085809002028CF00081D
:10279000D7F89020D7F8BC3013441B7819467F48EF
:1027A000FDF7E6FFD7F8BC300133C7F8BC30D7F8E7
:1027B000BC20D7F898309A42EADB7948FDF7D8FF79
:1027C00023461A460021D7F8900009F0EFFB692252
:1027D0000021744809F0EAFB43461A460021D7F865
:1027E000AC0009F0E3FB2B461A460021D7F8A00005
:1027F00009F0DCFB07F1280364220021184609F0E8
:10280000D5FB8DE0D7F890309B7C532B2DD1D7F89A
:102810009030DB7C022B28D1D7F890301B7D532BD6
:1028200023D16148FDF7A4FF604B53221A705F4B20
:10283000AC225A705D4B04229A705C4B0222DA7013
:102840005A4BFC221A71594BEE225A71574B9A7807
:10285000574B1A70574B01221A6023461A46002123
:10286000D7F8900009F0A2FB5BE0D7F89810524827
:10287000FDF77EFFA2B24FF4FA63D7F890104F48ED
:1028800004F05CF90346002B0AD0A2B24FF4FA63BD
:10289000D7F890104A4804F051F90346002B40D075
:1028A0000023C7F8B8300EE0D7F89020D7F8B8303A
:1028B00013441B7819463948FDF75AFFD7F8B8304A
:1028C0000133C7F8B830D7F8B820D7F898309A4213
:1028D000EADB3348FDF74CFF23461A460021D7F8C0
:1028E000900009F063FB692200212E4809F05EFB8D
:1028F00043461A460021D7F8AC0009F057FB2B4697
:102900001A460021D7F8A00009F050FB07F1280370
:1029100064220021184609F049FB02E000BF00E0F4
:1029200000BFB5461BE02748FDF722FF1F4B53228F
:102930001A701E4BAC225A701C4B04229A701B4B0F
:102940000222DA70194BCC221A71184BEE225A71FE
:10295000164B9A78164B1A70164B01221A60CD4608
:10296000194808F0F1F80021012008F035FD6FF05A
:102970007F4007F015FF154B1B781A460B490F488F
:1029800004F026FA114B1B781A4608490C4804F04B
:102990001FFA00BFEC37BD46BDE8F08FCCCA000877
:1029A000D4CA00084C0700204CCE0008B80700200D
:1029B000B60700201008002090CE0008A4030020D5
:1029C0007C02002048CF00086859F219010000205D
:1029D00080B400AF72B600BF00BFFDE780B586B01F
:1029E00000AF072200216C4809F0E0FA6B4B00228F
:1029F0001A7041F6583307226749694804F024F9F0
:102A00000346002B0AD041F6583307226249654835
:102A100004F01AF90346002B40F0AA806248FDF743
:102A2000A7FE00237B610AE05B4A7B6913441B78A5
:102A300019465E48FDF79CFE7B6901337B617B692B
:102A4000062BF1DD5A48FDF793FE0023FB71524B34
:102A50001B78FA799A4211D100233B610BE03B6964
:102A600001334D4AD15C4C4A3B6913440A461A7003
:102A70003B6901333B613B69062BF0D9464B1B7820
:102A8000532B3AD1444B5B797E2B36D14948FDF725
:102A90006FFE4FF4FA6307223F49414804F04EF8B5
:102AA0000346002B09D04FF4FA6307223A493D4808
:102AB00004F044F80346002B58D13F48FDF758FE78
:102AC0000023FB600AE0344AFB6813441B78194674
:102AD0003648FDF74DFEFB680133FB60FB68062BB3
:102AE000F1DD3348FDF744FE2C4B01221A7007221A
:102AF0000021294809F05AFA38E03048FDF738FE3D
:102B00004FF4FA6307222449254804F017F80346D6
:102B1000002B09D041F6583307221F49214804F001
:102B20000DF80346002B31D12548FDF721FE002387
:102B3000BB600AE0184ABB6813441B7819461B485F
:102B4000FDF716FEBB680133BB60BB68062BF1DDE9
:102B50001748FDF70DFE072200210F4809F026FA5D
:102B60000E4B00221A70FFF739FF0FE000BF0DE097
:102B70000A4B00221A701348FDF7FAFD07220021C4
:102B8000054809F013FAFFF729FF00E000BF00BF76
:102B90001837BD4680BD00BF7809002048090020D5
:102BA000A40300207C02002078CF0008A8CF0008F2
:102BB000B0CF0008B4CF0008DCCF000808D0000870
:102BC00034D0000864D0000880B485B000AF7860CD
:102BD0004FF0B043DA6C4FF0B0417B681343CB64E5
:102BE0004FF0B043DA6C7B681340FB60FB6800BFBA
:102BF0001437BD4680BC704780B485B000AF7860A4
:102C00004FF0B0439A6D4FF0B0417B6813438B6532
:102C10004FF0B0439A6D7B681340FB60FB6800BFC8
:102C20001437BD4680BC704780B485B000AF786073
:102C30004FF0B043DA6D4FF0B0417B681343CB6582
:102C40004FF0B043DA6D7B681340FB60FB6800BF58
:102C50001437BD4680BC704780B485B000AF786043
:102C60004FF0B0431A6E4FF0B0417B6813430B66D0
:102C70004FF0B0431A6E7B681340FB60FB6800BFE7
:102C80001437BD4680BC704780B485B000AF786013
:102C90004FF0B0435A6E4FF0B0417B6813434B6620
:102CA0004FF0B0435A6E7B681340FB60FB6800BF77
:102CB0001437BD4680BC704780B400AF00BFBD462E
:102CC00080BC704780B596B000AF786007F14403D0
:102CD00000221A605A609A60DA601A6107F10C03E8
:102CE00038220021184609F061F97B681B68994A6F
:102CF000934240F092802023FB600023FB6107F1A8
:102D00000C03184602F040FC0346002B01D0FFF7ED
:102D10005FFE0120FFF788FF0420FFF755FF032324
:102D20007B640223BB640023FB6400233B65082310
:102D30007B6507F144031946874801F099F8874BF2
:102D4000874A1A60854B15225A60844B00229A608C
:102D5000824B0022DA60814B80221A617F4B002275
:102D60005A617E4B00229A617C4B0022DA617B4BD8
:102D700000221A62794800F0F9FC0346002B01D0CA
:102D8000FFF726FE1021754800F09AFF0346002B3E
:102D900001D0FFF71DFE7B68704AC3F880206F4AA0
:102DA0007B6893626F4B704A1A606E4B16225A60B2
:102DB0006C4B10229A606B4B0022DA60694B8022C8
:102DC0001A61684B00225A61664B00229A61654B7A
:102DD0000022DA61634B00221A62624800F0C6FCEE
:102DE0000346002B01D0FFF7F3FD10215D4800F0F2
:102DF00067FF0346002B01D0FFF7EAFD7B68594AC5
:102E0000DA67584A7B68936200220021262000F08E
:102E100078FC262000F08FFC4CE17B681B68534A4D
:102E2000934240F0AD800123FB604FF440333B619F
:102E300007F10C03184602F0A7FB0346002B01D054
:102E4000FFF7C6FD4FF48040FFF706FF0120FFF7B4
:102E5000BBFE4FF4C0637B640223BB640023FB64AE
:102E600000233B6507237B6507F1440319464FF0B8
:102E7000904000F0FDFF3E4B3E4A1A603C4B112251
:102E80005A603B4B00229A60394B0022DA60384B83
:102E900080221A61364B00225A61354B00229A611A
:102EA000334B0022DA61324B00221A62304800F0C4
:102EB0005DFC0346002B01D0FFF78AFD10212C4852
:102EC00000F0FEFE0346002B01D0FFF781FD7B687A
:102ED000274AC3F88020264A7B689362264B274AFC
:102EE0001A60254B12225A60234B10229A60224B03
:102EF0000022DA60204B80221A611F4B00225A61A7
:102F00001D4B00229A611C4B0022DA611A4B0022F1
:102F10001A62194800F02AFC0346002B01D0FFF783
:102F200057FD1021144800F0CBFE0346002B01D0C2
:102F3000FFF74EFD7B68104ADA670F4A7B689362A1
:102F400000220021242000F0DCFB242000F0F3FB11
:102F5000B0E000BF008000400008004838040020B6
:102F600008000240980400201C0002400038014084
:102F7000F8040020300002405805002044000240C0
:102F80007B681B684D4A934240F094800223FB60AB
:102F90004FF440237B6107F10C03184602F0F4FA6A
:102FA0000346002B01D0FFF713FD4FF40030FFF76D
:102FB00023FE0120FFF708FE0C237B640223BB6481
:102FC0000023FB6400233B6507237B6507F1440373
:102FD00019464FF0904000F04BFF394B394A1A60C8
:102FE000374B13225A60364B00229A60344B002232
:102FF000DA60334B80221A61314B00225A61304B28
:1030000000229A612E4B0022DA612D4B00221A62B7
:103010002B4800F0ABFB0346002B01D0FFF7D8FC98
:103020001021274800F04CFE0346002B01D0FFF78B
:10303000CFFC7B68224AC3F88020214A7B689362D8
:10304000214B224A1A60204B14225A601E4B102238
:103050009A601D4B0022DA601B4B80221A611A4BCA
:1030600000225A61184B00229A61174B0022DA6144
:10307000154B00221A62144800F078FB0346002B1F
:1030800001D0FFF7A5FC10210F4800F019FE034600
:10309000002B01D0FFF79CFC7B680B4ADA670A4AD9
:1030A0007B68936200220021252000F02AFB252066
:1030B00000F041FB00BF5837BD4680BD00440040D2
:1030C000B805002058000240180600206C0002409D
:1030D00080B582B000AF78600120FFF7D5FD0022F7
:1030E0000021322000F00DFB322000F024FB00BF55
:1030F0000837BD4680BD000080B582B000AF786063
:103100007B681B680D4A93420CD14FF40060FFF7B7
:10311000A3FD00220021182000F0F3FA182000F08F
:103120000AFB07E07B681B68B3F1804F02D10120E6
:10313000FFF762FD00BF0837BD4680BD002C01408F
:1031400080B400AF00BFFDE780B400AF00BFFDE773
:1031500080B400AF00BFFDE780B400AF00BFFDE763
:1031600080B400AF00BFFDE780B400AF00BFBD4634
:1031700080BC704780B400AF00BFBD4680BC7047C4
:1031800080B400AF00BFBD4680BC704780B500AFC3
:1031900000F0CEF900BF80BD80B500AF024800F05E
:1031A000C9FC00BF80BD00BF3804002080B500AF5F
:1031B000024800F0BFFC00BF80BD00BF98040020A3
:1031C00080B500AF024800F0B5FC00BF80BD00BF75
:1031D000F804002080B500AF024800F0ABFC00BF4F
:1031E00080BD00BF5805002080B500AF024800F048
:1031F000A1FC00BF80BD00BFB805002080B500AFB6
:10320000024800F097FC00BF80BD00BF18060020F8
:1032100080B500AF024803F0A1F800BF80BD00BF39
:103220008406002080B500AF024803F01DFE00BFF9
:1032300080BD00BF1003002080B500AF024803F03E
:1032400013FE00BF80BD00BFA403002080B500AF07
:10325000024803F009FE00BF80BD00BF7C020020D1
:1032600080B500AF024802F0C5FD00BF80BD00BFC1
:103270007806002080B400AF00BFBD4680BC704718
:1032800080B582B000AF00237B60064B1B78002B1B
:1032900002D000F092F878607B6818460837BD4687
:1032A00080BD00BF7F09002080B582B000AF78608C
:1032B0007B68184600F0AFF800BF0837BD4680BDF8
:1032C00080B586B000AF7860144A154BD31A7B6185
:1032D0007B693B61134B1B68002B02D1114B124AD7
:1032E0001A60104B1A687B6813443A699A4207D2F5
:1032F00008F064FE03460C221A604FF0FF3309E029
:10330000084B1B68FB60074B1A687B681344054A2F
:103310001360FB6818461837BD4680BD00000120C9
:103320000004000080090020980C002080B400AF49
:1033300000BFBD4680BC704780B483B000AF00239F
:10334000FB71FB7918460C37BD4680BC704780B4D2
:1033500085B000AF78600023FB73FB7B1846143701
:10336000BD4680BC704780B483B000AF0023FB71C2
:10337000FB7918460C37BD4680BC704780B400AF5F
:10338000024B1B681846BD4680BC7047840900206C
:1033900080B400AF024B1B681846BD4680BC704726
:1033A0008409002080B483B000AF00237B607B6879
:1033B00018460C37BD4680BC704780B483B000AF60
:1033C00000237B607B6818460C37BD4680BC704785
:1033D00080B483B000AF00237B607B6818460C3755
:1033E000BD4680BC704780B485B000AF78600023D4
:1033F000FB60FB6818461437BD4680BC704780B43C
:1034000085B000AF78600023FB60FB681846143776
:10341000BD4680BC704780B483B000AF786000BF09
:103420000C37BD4680BC70470D488546FFF77EFFD0
:103430000C480D490D4A002302E0D458C45004330F
:10344000C4188C42F9D30A4A0A4C002301E01360E5
:103450000432A242FBD308F0B7FDFDF723FFFEE7DD
:1034600000000120000000206800002050D3000868
:1034700068000020940C0020FEE7000080B582B0B8
:1034800000AF0023FB71032000F030F901F09EFE35
:103490000346094A1360002000F010F80346002B91
:1034A00002D00123FB7101E0FFF706FCFB7918460F
:1034B0000837BD4680BD00BF0C00002080B584B039
:1034C00000AF78600023FB73174B1B78002B24D0D0
:1034D00001F07CFE0246144B1B7819464FF47A73B8
:1034E000B3FBF1F3B2FBF3F3184600F032F90346F5
:1034F000002B0FD17B680F2B09D8002279684FF081
:10350000FF3000F0FEF8094A7B68136007E00123F2
:10351000FB7304E00123FB7301E00123FB73FB7BDE
:1035200018461037BD4680BD140000201000002052
:1035300080B400AF054B1B781A46054B1B6813443B
:10354000034A136000BFBD4680BC704714000020D2
:103550008809002080B485B000AF78607B6803F0F4
:103560000703FB600C4BDB68BB60BA684FF6FF03D8
:103570001340BB60FB681A02BB68134343F0BF6390
:1035800043F40033BB60044ABB68D36000BF143708
:10359000BD4680BC704700BF00ED00E080B400AFC6
:1035A000044BDB681B0A03F007031846BD4680BCCA
:1035B000704700BF00ED00E080B483B000AF034669
:1035C000FB7197F90730002B0BDBFB7903F01F022F
:1035D000064997F907305B09012000FA02F241F829
:1035E000232000BF0C37BD4680BC704700E100E0DF
:1035F00080B483B000AF03463960FB7197F90730A0
:10360000002B0ADB3B68DAB20C4997F9073012014C
:10361000D2B20B4483F800230AE03B68DAB20849CF
:10362000FB7903F00F03043B1201D2B20B441A766C
:1036300000BF0C37BD4680BC704700BF00E100E012
:1036400000ED00E080B489B000AFF860B9607A6046
:10365000FB6803F00703FB61FB69C3F10703042B5D
:1036600028BF0423BB61FB690433062B02D9FB6925
:10367000033B00E000237B614FF0FF32BB6902FA9D
:1036800003F3DA43BB681A407B699A404FF0FF317D
:103690007B6901FA03F3D9437B680B401343184657
:1036A0002437BD4680BC704780B582B000AF7860DB
:1036B0007B68013BB3F1807F01D301230FE00A4A0D
:1036C0007B68013B53600F214FF0FF30FFF790FF05
:1036D000054B00229A60044B07221A60002318460B
:1036E0000837BD4680BD00BF10E000E080B582B065
:1036F00000AF78607868FFF72DFF00BF0837BD4640
:1037000080BD80B586B000AF0346B9607A60FB73B8
:10371000FFF744FF78617A68B9687869FFF792FF2C
:10372000024697F90F3011461846FFF761FF00BFB8
:103730001837BD4680BD80B582B000AF0346FB712F
:1037400097F907301846FFF737FF00BF0837BD4627
:1037500080BD80B582B000AF78607868FFF7A4FFC5
:10376000034618460837BD4680BD000080B582B0CC
:1037700000AF78607B68002B01D101238EE07B686D
:103780001B681A46474B9A420FD87B681B681A463B
:10379000454B1344454AA2FB03231B099A007B684F
:1037A0005A647B68424A1A640EE07B681B681A46BA
:1037B000404B13443D4AA2FB03231B099A007B683C
:1037C0005A647B683C4A1A647B68022283F825208D
:1037D0007B681B681B687A68126823F4FF4323F038
:1037E000700313607B681B6819687B689A687B6844
:1037F000DB681A437B681B691A437B685B691A4361
:103800007B689B691A437B68DB691A437B681B6A88
:103810001A437B681B680A431A60786800F0BCFA98
:103820007B689B68B3F5804F02D17B6800225A60A9
:103830007B685A687B689B6C02F07F021A607B6829
:10384000DB6C7A68126D5A607B685B68002B10D065
:103850007B685B68042B0CD8786800F0E5FA7B681D
:103860005B6D00221A607B689B6D7A68D26D5A602E
:1038700008E07B6800225A657B6800229A657B68B5
:103880000022DA657B680022DA637B68012283F814
:1038900025207B68002283F824200023184608375F
:1038A000BD4680BD07040240F8FFFDBFCDCCCCCCA7
:1038B00000000240F8FBFDBF0004024080B586B066
:1038C00000AFF860B9607A603B600023FB75FB686D
:1038D00093F82430012B01D1022369E0FB68012217
:1038E00083F82420FB6893F82530DBB2012B55D1F7
:1038F000FB68022283F82520FB680022DA63FB685C
:103900001B681A68FB681B6822F001021A603B689A
:103910007A68B968F86800F002FAFB681B6B002B44
:1039200008D0FB681B681A68FB681B6842F00E022F
:103930001A600FE0FB681B681A68FB681B6822F0BE
:1039400004021A60FB681B681A68FB681B6842F077
:103950000A021A60FB689B6C1B6803F48033002B1F
:1039600007D0FB689B6C1A68FB689B6C42F4807202
:103970001A60FB685B6D002B07D0FB685B6D1A68F3
:10398000FB685B6D42F480721A60FB681B681A6802
:10399000FB681B6842F001021A6008E0FB688022A5
:1039A000DA63FB68002283F824200123FB75FB7D8A
:1039B00018461837BD4680BD80B483B000AF78602C
:1039C0007B68002B01D101234FE07B6893F8253001
:1039D000DBB2022B08D07B680422DA637B6800220A
:1039E00083F82420012340E07B681B681A687B6809
:1039F0001B6822F00E021A607B689B6C1A687B6859
:103A00009B6C22F480721A607B681B681A687B6862
:103A10001B6822F001021A607B685B6C03F01C02D9
:103A20007B681B6C012101FA02F25A607B68DB6C37
:103A30007A68126D5A607B685B6D002B0CD07B68D6
:103A40005B6D1A687B685B6D22F480721A607B681C
:103A50009B6D7A68D26D5A607B68012283F82520BD
:103A60007B68002283F82420002318460C37BD46CB
:103A700080BC704780B584B000AF78600023FB73D2
:103A80007B6893F82530DBB2022B05D07B680422DB
:103A9000DA630123FB7347E07B681B681A687B6865
:103AA0001B6822F00E021A607B681B681A687B682C
:103AB0001B6822F001021A607B689B6C1A687B68A5
:103AC0009B6C22F480721A607B685B6C03F01C02B2
:103AD0007B681B6C012101FA02F25A607B68DB6C87
:103AE0007A68126D5A607B685B6D002B0CD07B6826
:103AF0005B6D1A687B685B6D22F480721A607B686C
:103B00009B6D7A68D26D5A607B68012283F825200C
:103B10007B68002283F824207B689B6B002B03D0FA
:103B20007B689B6B78689847FB7B18461037BD46CF
:103B300080BD000080B584B000AF78607B681B6CEE
:103B40001B68FB607B681B681B68BB607B685B6CE9
:103B500003F01C0304229A40FB681340002B27D07B
:103B6000BB6803F00403002B22D07B681B681B6832
:103B700003F02003002B07D17B681B681A687B6861
:103B80001B6822F004021A607B685B6C03F01C0265
:103B90007B681B6C042101FA02F25A607B681B6B84
:103BA000002B00F081807B681B6B786898477BE076
:103BB0007B685B6C03F01C0302229A40FB68134095
:103BC000002B3DD0BB6803F00203002B38D07B688C
:103BD0001B681B6803F02003002B0BD17B681B685C
:103BE0001A687B681B6822F00A021A607B6801224F
:103BF00083F825207B681B681A462E4B9A4209D908
:103C00007B685B6C03F01C032B4A022101FA03F36F
:103C1000536008E07B685B6C03F01C03274A0221B9
:103C200001FA03F353607B68002283F824207B6849
:103C3000DB6A002B38D07B68DB6A7868984733E012
:103C40007B685B6C03F01C0308229A40FB681340FE
:103C5000002B2AD0BB6803F00803002B25D07B681B
:103C60001B681A687B681B6822F00E021A607B686A
:103C70005B6C03F01C027B681B6C012101FA02F2F1
:103C80005A607B680122DA637B68012283F8252071
:103C90007B68002283F824207B685B6B002B04D0B8
:103CA0007B685B6B7868984700BF00BF1037BD46E4
:103CB00080BD00BF800002400004024000000240BE
:103CC00080B485B000AF786039600023FB727B68F8
:103CD000002B03D10123FB72FB7A1BE07B681B687E
:103CE0001B68FB603B6803F01003002B0DD03B68A2
:103CF00003F48013002B04D0FB6843F48013FB60B3
:103D000003E0FB6823F48013FB607B681B68FA68A0
:103D10001A60FB7A18461437BD4680BC704780B4E1
:103D200085B000AFF860B9607A603B60FB68DB6C1F
:103D3000FA68126D5A60FB685B6D002B04D0FB685B
:103D40009B6DFA68D26D5A60FB685B6C03F01C02D5
:103D5000FB681B6C012101FA02F25A60FB681B68C8
:103D60003A685A60FB689B68102B08D1FB681B6897
:103D70007A689A60FB681B68BA68DA6007E0FB68DB
:103D80001B68BA689A60FB681B687A68DA6000BFD3
:103D90001437BD4680BC704780B485B000AF7860F2
:103DA0007B681B681A461C4B9A4213D87B685B6C75
:103DB0009B089B0003F1804303F502337A68936408
:103DC0007B681B68DBB2083B144AA2FB03231B0978
:103DD000FB6011E07B685B6C9B089A00104B1344FE
:103DE0007A6893647B681B68DBB2083B0B4AA2FBD2
:103DF00003231B090733FB607B680A4ADA64FB680C
:103E000003F01F0301229A407B681A6500BF143734
:103E1000BD4680BC704700BF07040240CDCCCCCC6F
:103E20001C0802408008024080B485B000AF786072
:103E30007B685B6803F07F03FB60FA680A4B1344FE
:103E40009B001A467B685A657B68084A9A65FB683E
:103E5000013B03F0030301229A407B68DA6500BF4F
:103E60001437BD4680BC70473F82001040090240B5
:103E700080B487B000AF7860396000237B6140E197
:103E80003B681A6801217B6901FA03F31340FB6068
:103E9000FB68002B00F032813B685B6803F0030392
:103EA000012B05D03B685B6803F00303022B30D184
:103EB0007B689B683B617B695B00032202FA03F32A
:103EC000DB433A6913403B613B68DA687B695B001E
:103ED00002FA03F33A6913433B617B683A699A60DB
:103EE0007B685B683B6101227B6902FA03F3DB4379
:103EF0003A6913403B613B685B681B0903F00102B0
:103F00007B6902FA03F33A6913433B617B683A69C0
:103F10005A603B685B6803F00303032B17D07B6890
:103F2000DB683B617B695B00032202FA03F3DB433E
:103F30003A6913403B613B689A687B695B0002FA0F
:103F400003F33A6913433B617B683A69DA603B6883
:103F50005B6803F00303022B23D17B69DA087B68DB
:103F6000083253F822303B617B6903F007039B0062
:103F70000F2202FA03F3DB433A6913403B613B68CB
:103F80001A697B6903F007039B0002FA03F33A699D
:103F900013433B617B69DA087B680832396943F86F
:103FA00022107B681B683B617B695B00032202FA7D
:103FB00003F3DB433A6913403B613B685B6803F002
:103FC00003027B695B0002FA03F33A6913433B6126
:103FD0007B683A691A603B685B6803F44033002BE6
:103FE00000F08C804E4A7B699B08023352F82330E4
:103FF0003B617B6903F003039B00072202FA03F392
:10400000DB433A6913403B617B68B3F1904F0DD0BD
:104010007B68444A934207D07B68434A934201D16C
:10402000022304E0072302E0012300E000237A6971
:1040300002F00302920093403A6913433B6138490E
:104040007B699B0802333A6941F82320374B1B6890
:104050003B61FB68DB433A6913403B613B685B684B
:1040600003F48013002B03D03A69FB6813433B61D0
:104070002E4A3B6913602D4B5B683B61FB68DB4359
:104080003A6913403B613B685B6803F40013002B03
:1040900003D03A69FB6813433B61244A3B69536090
:1040A000224BD3F880303B61FB68DB433A69134015
:1040B0003B613B685B6803F48033002B03D03A69B3
:1040C000FB6813433B61194A3B69C2F88030174BC8
:1040D000D3F884303B61FB68DB433A6913403B61B2
:1040E0003B685B6803F40033002B03D03A69FB683C
:1040F00013433B610D4A3B69C2F884307B6901334D
:104100007B613B681A687B6922FA03F3002B7FF41A
:10411000B7AE00BF00BF1C37BD4680BC704700BFB4
:104120000000014000040048000800480008005852
:1041300080B483B000AF78600B467B8013467B7001
:104140007B78002B03D07A887B689A6102E07A88BA
:104150007B689A6200BF0C37BD4680BC7047000088
:1041600080B400AF044B1B68034A43F480731360B0
:1041700000BFBD4680BC70470004005880B400AF4B
:10418000034B1B6803F4C0631846BD4680BC7047F0
:104190000004005880B400AF064B1B6803F4807322
:1041A000B3F5807F01D1012300E000231846BD460E
:1041B00080BC70470004005880B400AF4FF0B0439B
:1041C0001B684FF0B04243F40013136000BFBD46BC
:1041D00080BC704780B400AF4FF0B0431B684FF015
:1041E000B04223F40013136000BFBD4680BC70478B
:1041F00080B400AF4FF0B0431B6803F48013B3F5F5
:10420000801F01D1012300E000231846BD4680BC79
:10421000704780B400AF4FF0B0431B684FF0B0421E
:1042200043F48033136000BFBD4680BC704780B448
:1042300000AF4FF0B0431B684FF0B04223F480331F
:10424000136000BFBD4680BC704780B400AF4FF024
:10425000B0431B6803F40033B3F5003F01D10123E1
:1042600000E000231846BD4680BC704780B400AF14
:104270004FF0B0431B684FF0B04243F480731360BB
:1042800000BFBD4680BC704780B400AF4FF0B04364
:104290001B684FF0B04223F48073136000BFBD462B
:1042A00080BC704780B400AF4FF0B0431B6803F48C
:1042B0008063B3F5806F01D1012300E0002318462D
:1042C000BD4680BC704780B483B000AF78604FF0CB
:1042D000B0435B6823F0FE427B681B064FF0B041A1
:1042E00013434B6000BF0C37BD4680BC704780B4A1
:1042F00000AF4FF0B043D3F8903003F00203022B2D
:1043000001D1012300E000231846BD4680BC704760
:1043100080B400AF4FF0B043D3F894304FF0B042C8
:1043200043F00103C2F8943000BFBD4680BC704723
:1043300080B400AF4FF0B043D3F894304FF0B042A8
:1043400023F00103C2F8943000BFBD4680BC704723
:1043500080B400AF4FF0B043D3F8943003F00203C1
:10436000022B01D1012300E000231846BD4680BC8A
:10437000704780B400AF4FF0B0431B684FF0B042BD
:1043800043F00103136000BFBD4680BC704780B49A
:1043900000AF4FF0B0431B684FF0B04223F0010371
:1043A000136000BFBD4680BC704780B400AF4FF0C3
:1043B000B0431B6803F00203022B01D1012300E08C
:1043C00000231846BD4680BC704780B400AF4FF054
:1043D000B0431B6803F00803082B01D1012300E060
:1043E00000231846BD4680BC704780B400AF4FF034
:1043F000B0431B6803F0F0031846BD4680BC70470D
:1044000080B400AF4FF0B043D3F8943003F470633E
:104410001846BD4680BC704780B483B000AF78605A
:104420004FF0B0435B6823F47F427B681B024FF080
:10443000B04113434B6000BF0C37BD4680BC704792
:1044400080B483B000AF78604FF0B0439B6823F036
:1044500003024FF0B0417B6813438B6000BF0C3701
:10446000BD4680BC704780B400AF4FF0B0439B683E
:1044700003F00C031846BD4680BC704780B483B07F
:1044800000AF78604FF0B0439B6823F0F0024FF02C
:10449000B0417B6813438B6000BF0C37BD4680BCC6
:1044A000704780B483B000AF78604FF0B043D3F86A
:1044B000083123F0F0024FF0B0417B681343C1F89C
:1044C000083100BF0C37BD4680BC704780B483B054
:1044D00000AF78604FF0B043D3F8083123F00F02FB
:1044E0007B681B094FF0B0411343C1F8083100BF8E
:1044F0000C37BD4680BC704780B483B000AF786095
:104500004FF0B0439B6823F4E0624FF0B0417B680A
:1045100013438B6000BF0C37BD4680BC704780B42E
:1045200083B000AF78604FF0B0439B6823F46052D3
:104530004FF0B0417B6813438B6000BF0C37BD4622
:1045400080BC704780B400AF4FF0B0439B6803F06D
:10455000F0031846BD4680BC704780B400AF4FF0F2
:10456000B043D3F808311B0103F0F0031846BD46F1
:1045700080BC704780B400AF4FF0B0439B6803F439
:10458000E0631846BD4680BC704780B400AF4FF072
:10459000B0439B6803F460531846BD4680BC704727
:1045A00080B400AF4FF0B0431B684FF0B04243F00F
:1045B0008073136000BFBD4680BC704780B400AFFD
:1045C0004FF0B0431B684FF0B04223F0807313608C
:1045D00000BFBD4680BC704780B400AF4FF0B04311
:1045E0001B6803F00073B3F1007F01D1012300E0E9
:1045F00000231846BD4680BC704780B400AF4FF022
:10460000B043DB681B0A03F07F031846BD4680BC3D
:10461000704780B400AF4FF0B043DB6803F06043F5
:104620001846BD4680BC704780B400AF4FF0B04321
:10463000DB6803F070031846BD4680BC704780B449
:1046400000AF4FF0B043DB6803F003031846BD46EC
:1046500080BC704780B400AF4FF0B0439B6803F458
:104660008033B3F5803F01D1012300E000231846D9
:10467000BD4680BC704780B400AF4FF0B043D3F864
:10468000083103F40033B3F5003F01D1012300E00A
:1046900000231846BD4680BC704780B400AF4FF081
:1046A000B043D3F8083103F48033B3F5803F01D130
:1046B000012300E000231846BD4680BC704780B44B
:1046C00000AF4FF0B0439B6803F40033B3F5003FF5
:1046D00001D1012300E000231846BD4680BC70478D
:1046E00080B400AF4FF0B0439B6803F48023B3F570
:1046F000802F01D1012300E000231846BD4680BC75
:104700007047000080B588B000AF78607B68002BF0
:1047100001D101236FE3FFF7A6FEF861FFF78FFFDA
:10472000B8617B681B6803F02003002B00F0C48095
:10473000FB69002B05D0FB690C2B76D1BB69012BE3
:1047400073D17B681B6A002B01D1012353E37B6883
:104750009A6A4FF0B0431B6803F00803002B05D0A2
:104760004FF0B0431B6803F0F00306E04FF0B04396
:10477000D3F894301B0903F0F003934222D27B68F4
:104780009B6A184600F05AFD0346002B01D0012316
:1047900031E34FF0B0431B684FF0B04243F00803E1
:1047A00013604FF0B0431B6823F0F0027B689B6AF4
:1047B0004FF0B04113430B607B685B6A1846FFF70C
:1047C0002BFE21E04FF0B0431B684FF0B04243F0A6
:1047D000080313604FF0B0431B6823F0F0027B68BE
:1047E0009B6A4FF0B04113430B607B685B6A1846CD
:1047F000FFF712FE7B689B6A184600F01FFD034618
:10480000002B01D00123F6E200F0E0FC0346A74AAA
:104810001360A74B1B681846FEF750FE0346FB7457
:10482000FB7C002B47D0FB7CE5E27B681B6A002BFE
:104830002CD0FFF79EFDFEF723FD786108E0FEF720
:104840001FFD02467B69D31A022B01D90323D2E252
:10485000FFF7ABFD0346002BF1D04FF0B0431B68D0
:104860004FF0B04243F0080313604FF0B0431B68B1
:1048700023F0F0027B689B6A4FF0B04113430B605A
:104880007B685B6A1846FFF7C7FD15E0FFF77FFD01
:10489000FEF7F6FC786108E0FEF7F2FC02467B6961
:1048A000D31A022B01D90323A5E2FFF77EFD0346AD
:1048B000002BF1D100E000BF7B681B6803F001030F
:1048C000002B58D0FB69082B05D0FB690C2B08D1B5
:1048D000BB69032B05D17B685B68002B4BD101239F
:1048E00089E24FF0B0431B6823F480127B689B6819
:1048F0004FF0B04113430B607B685B68B3F5803FBA
:1049000002D1FFF786FC0DE07B685B68B3F5041FFE
:1049100004D1FFF751FCFFF77CFC03E0FFF787FCB5
:10492000FFF758FC7B685B68002B12D0FEF7A8FCF1
:10493000786108E0FEF7A4FC02467B69D31A642B79
:1049400001D9032357E2FFF780FC0346002BF1D087
:1049500011E0FEF795FC786108E0FEF791FC024655
:104960007B69D31A642B01D9032344E2FFF76DFC62
:104970000346002BF1D17B681B6803F00203002B78
:1049800046D0FB69042B05D0FB690C2B0ED1BB690B
:10499000022B0BD17B681B69002B01D101232AE27A
:1049A0007B685B691846FFF78EFC31E07B681B690A
:1049B000002B19D0FFF75AFCFEF762FC786108E083
:1049C000FEF75EFC02467B69D31A022B01D9032352
:1049D00011E2FFF767FC0346002BF1D07B685B69AF
:1049E0001846FFF770FC13E0FFF74EFCFEF748FC9B
:1049F000786108E0FEF744FC02467B69D31A022B7B
:104A000001D90323F7E1FFF74DFC0346002BF1D159
:104A10007B681B6803F00803002B6ED07B689B69E2
:104A2000002B56D04FF0B043D3F89430FB607B6836
:104A3000DA69FB6803F010039A4231D0FB6803F097
:104A40000203002B06D0FB6803F00103002B01D109
:104A50000123D0E1FB6803F00103002B13D0FFF723
:104A600067FCFEF70DFC786108E0FEF709FC0246E2
:104A70007B69D31A112B01D90323BCE1FFF768FC32
:104A80000346002BF1D14FF0B043D3F8943023F01C
:104A900010027B68DB694FF0B0411343C1F89430DA
:104AA000FFF736FCFEF7ECFB78610CE00C00002011
:104AB00010000020FEF7E4FB02467B69D31A112B9D
:104AC00001D9032397E1FFF743FC0346002BF1D004
:104AD00013E0FFF72DFCFEF7D3FB786108E0FEF74B
:104AE000CFFB02467B69D31A112B01D9032382E144
:104AF000FFF72EFC0346002BF1D17B681B6803F007
:104B00000403002B00F0D880FFF744FB0346002B82
:104B100013D1FFF725FBFEF7B3FB786108E0FEF742
:104B2000AFFB02467B69D31A022B01D9032362E152
:104B3000FFF730FB0346002BF1D07B68DB68002BCE
:104B40007BD07B68DB68852B03D07B68DB68052B1B
:104B500009D14FF0B043D3F890304FF0B04243F05A
:104B60000403C2F89030FEF78BFB78614FF0B0433E
:104B7000D3F890304FF0B04243F00103C2F89030C8
:104B80000AE0FEF77DFB02467B69D31A41F28832C8
:104B9000934201D903232EE1FFF7A9FB0346002B23
:104BA000EFD07B68DB68812B03D07B68DB68852BCB
:104BB00021D1FEF765FB78614FF0B043D3F8903018
:104BC0004FF0B04243F08003C2F890300AE0FEF7A5
:104BD00057FB02467B69D31A41F28832934201D9CE
:104BE000032308E14FF0B043D3F8903003F400639F
:104BF000002BECD060E0FEF743FB78614FF0B04350
:104C0000D3F890304FF0B04223F08003C2F89030D8
:104C10000AE0FEF735FB02467B69D31A41F288327F
:104C2000934201D90323E6E04FF0B043D3F890302C
:104C300003F40063002BECD13EE0FEF721FB78612A
:104C40004FF0B043D3F890304FF0B04223F08003E0
:104C5000C2F890300AE0FEF713FB02467B69D31AD4
:104C600041F28832934201D90323C4E04FF0B043AC
:104C7000D3F8903003F40063002BECD1FEF700FB77
:104C800078614FF0B043D3F890304FF0B04223F04A
:104C90000103C2F890300AE0FEF7F2FA02467B699F
:104CA000D31A41F28832934201D90323A3E0FFF7DC
:104CB0001EFB0346002BEFD17B68DB6A002B00F064
:104CC0009980FB690C2B6CD07B68DB6A022B4BD183
:104CD000FFF774FCFEF7D4FA786108E0FEF7D0FA2B
:104CE00002467B69D31A0A2B01D9032383E0FFF71D
:104CF00073FC0346002BF1D14FF0B043DA68404B10
:104D000013407A68116B7A68526B11437A68926B20
:104D1000120211437A68D26B11437A68126C114304
:104D20007A68526C0A434FF0B0411343CB60FFF7EF
:104D300037FC4FF0B043DB684FF0B04243F0805394
:104D4000D360FEF79DFA786108E0FEF799FA024613
:104D50007B69D31A0A2B01D903234CE0FFF73CFCF3
:104D60000346002BF1D045E0FFF728FCFEF788FA58
:104D7000786108E0FEF784FA02467B69D31A0A2BB1
:104D800001D9032337E0FFF727FC0346002BF1D1BD
:104D90004FF0B043DA684FF0B0411A4B1340CB608C
:104DA00028E07B68DB6A012B01D1012323E04FF06F
:104DB000B043DB68BB61BB6903F003027B681B6B1C
:104DC0009A4215D1BB6903F070027B685B6B9A4213
:104DD0000ED1BB6903F4FE427B689B6B1B029A42B7
:104DE00006D1BB6903F060427B685B6C9A4201D0DC
:104DF000012300E0002318462037BD4680BD00BFD8
:104E00008C80C111FCFFFEEE80B584B000AF7860ED
:104E100039607B68002B01D101232CE1984B1B6882
:104E200003F007033A689A421BD9954B1B6823F09D
:104E3000070293493B6813430B60FEF721FAF860C1
:104E400008E0FEF71DFA0246FB68D31A022B01D9CF
:104E5000032310E18A4B1B6803F007033A689A4268
:104E6000EFD17B681B6803F00203002B16D07B6830
:104E70009B681846FFF702FBFEF702FAF86008E0AD
:104E8000FEF7FEF90246FB68D31A022B01D9032371
:104E9000F1E0FFF7DFFB0346002BF1D07B681B68D6
:104EA00003F02003002B16D07B685B691846FFF7E0
:104EB000F8FAFEF7E5F9F86008E0FEF7E1F90246D6
:104EC000FB68D31A022B01D90323D4E0FFF7D3FBED
:104ED0000346002BF1D07B681B6803F04003002BD6
:104EE00016D07B689B691846FFF7F0FAFEF7C8F901
:104EF000F86008E0FEF7C4F90246FB68D31A022BFB
:104F000001D90323B7E0FFF7C8FB0346002BF1D01C
:104F10007B681B6803F00403002B16D07B68DB68FA
:104F20001846FFF7E9FAFEF7ABF9F86008E0FEF77C
:104F3000A7F90246FB68D31A022B01D903239AE092
:104F4000FFF7BDFB0346002BF1D07B681B6803F025
:104F50000803002B17D07B681B69DB001846FFF79E
:104F6000DEFAFEF78DF9F86008E0FEF789F90246EF
:104F7000FB68D31A022B01D903237CE0FFF7B0FBB7
:104F80000346002BF1D07B681B6803F00103002B64
:104F900043D07B685B68022B06D1FFF756F90346C6
:104FA000002B1ED1012366E07B685B68032B06D1D2
:104FB000FFF712FB0346002B13D101235BE07B6854
:104FC0005B68002B06D1FFF7F0F90346002B08D1F0
:104FD000012350E0FFF766F90346002B01D10123BE
:104FE00049E07B685B681846FFF72AFAFEF748F944
:104FF000F8600AE0FEF744F90246FB68D31A41F272
:105000008832934201D9032335E0FFF72CFA024698
:105010007B685B689B009A42ECD1194B1B6803F0DC
:1050200007033A689A421BD2154B1B6823F007020C
:1050300013493B6813430B60FEF722F9F86008E060
:10504000FEF71EF90246FB68D31A022B01D903238F
:1050500011E00B4B1B6803F007033A689A42EFD14B
:1050600000F0B4F80346074A1360074B1B68184664
:10507000FEF724FA034618461037BD4680BD00BF30
:10508000004000580C0000201000002090B587B0B0
:1050900000AF00237B6100233B61FFF7E4F9B860B8
:1050A000FFF7CDFA7860BB68002B05D0BB680C2BEE
:1050B00039D17B68012B36D1FFF787F90346002BE6
:1050C00015D1FFF782F90346012B06D1FFF78DF9C1
:1050D00003461B0A03F00F0305E0FFF791F90346AF
:1050E0001B0A03F00F03364A52F8233014E0FFF78F
:1050F0006CF90346012B06D1FFF777F903461B092C
:1051000003F00F0305E0FFF77BF903461B0903F0EB
:105110000F032B4A52F823303B61BB68002B15D19B
:105120003B697B6112E0BB68042B02D1254B7B619C
:105130000CE0BB68082B09D1FFF75AF80346012B96
:1051400002D1204B7B6101E01F4B7B61FFF78BF9A4
:1051500003460C2B2FD1FFF772FA78607B68022B85
:1051600003D07B68032B03D00DE0164BFB600DE0F2
:10517000FFF73EF80346012B02D1124BFB6005E01E
:10518000114BFB6002E03B69FB6000BFFFF735FAA3
:105190000246FB6803FB02F4FFF746FA03461B09CD
:1051A0000133B4FBF3F4FFF734FA03465B0F01332A
:1051B000B4FBF3F37B617B6918461C37BD4690BD99
:1051C00038D100080024F4000048E80198B500AF89
:1051D000FFF75CFF0446FFF7B5F903461B0903F030
:1051E0000F03034A52F82330B4FBF3F3184698BD7B
:1051F000D8D0000898B500AFFFF7E8FF0446FFF7E6
:10520000B9F903461B0A034A52F8233024FA03F380
:10521000184698BD18D1000898B500AFFFF7D6FF23
:105220000446FFF7B2F90346DB0A034A52F823307B
:1052300024FA03F3184698BD18D1000890B585B03C
:1052400000AF78607B681B0903F00F03104A52F827
:105250002330FB60FFF781F903461B0903F00F03BE
:105260000C4A52F82330FA68B2FBF3F3BB60BB6818
:10527000094AA2FB03239C0CFEF780FF0346194654
:10528000204600F00BF8034618461437BD4690BD83
:1052900038D10008D8D0000883DE1B4380B58EB01B
:1052A00000AF786039603A4A07F1200392E80300C2
:1052B000186004331980374A07F1180392E8030095
:1052C000186004331980344A07F10C0307CA83E8D5
:1052D000070000237B633B68B3F5007F1BD10023ED
:1052E0003B6314E03B6B5B0038333B4433F8183CC2
:1052F0001A467B68934207D83B6B9B0038333B448C
:1053000053F82C3C7B6321E03B6B01333B633B6BED
:10531000022BE7D91AE00023FB6214E0FB6A5B0072
:1053200038333B4433F8203C1A467B68934207D815
:10533000FB6A9B0038333B4453F82C3C7B6305E00D
:10534000FB6A0133FB62FB6A022BE7D9134B1B6834
:1053500023F0070211497B6B13430B60FDF790FFAD
:10536000B86208E0FDF78CFF0246BB6AD31A022B35
:1053700001D9032307E0094B1B6803F007037A6B8D
:105380009A42EFD1002318463837BD4680BD00BF92
:1053900098D00008A0D00008A8D00008004000580D
:1053A00080B400AF4FF0B043D3F8903003F0020365
:1053B000022B01D1012300E000231846BD4680BC2A
:1053C000704780B483B000AF78604FF0B043D3F83B
:1053D00088207B681B0CDB431A407B689BB24FF034
:1053E000B0411343C1F8883000BF0C37BD4680BCC4
:1053F000704780B483B000AF78604FF0B043D3F80B
:10540000883023F440724FF0B0417B681343C1F8F9
:10541000883000BF0C37BD4680BC704780B483B075
:1054200000AF78604FF0B043D3F8883023F4406287
:105430004FF0B0417B681343C1F8883000BF0C3790
:10544000BD4680BC704780B483B000AF78604FF039
:10545000B043D3F888207B681B0903F47F23DB4328
:105460001A407B681B0103F47F234FF0B0411343C4
:10547000C1F8883000BF0C37BD4680BC704780B48F
:1054800083B000AF78604FF0B043D3F888207B68DA
:105490001B0C1B04DB431A407B681B044FF0B0411C
:1054A0001343C1F8883000BF0C37BD4680BC70473D
:1054B00080B483B000AF78604FF0B043D3F8883049
:1054C00023F040424FF0B0417B681343C1F888306D
:1054D00000BF0C37BD4680BC704780B483B000AFBE
:1054E00078604FF0B043D3F8883023F040524FF04B
:1054F000B0417B681343C1F8883000BF0C37BD460C
:1055000080BC704780B483B000AF78604FF0B04388
:10551000D3F8903023F440724FF0B0417B681343CE
:10552000C1F8903000BF0C37BD4680BC704780B4D6
:1055300000AF4FF0B043D3F8903003F440731846F7
:10554000BD4680BC704780B400AF4FF0B043D3F885
:1055500090304FF0B04243F48033C2F8903000BF37
:10556000BD4680BC704780B400AF4FF0B043D3F865
:1055700090304FF0B04223F48033C2F8903000BF37
:10558000BD4680BC7047000080B586B000AF786033
:1055900000237B610023FB740023BB747B681B68C2
:1055A00003F48033002B58D0FEF7DAFDFDF768FED8
:1055B000F86009E0FDF764FE0246FB68D31A022B8F
:1055C00002D90323FB7406E07B4B1B6803F4807352
:1055D000B3F5807FEED1FB7C002B3CD1FFF7A7FF1A
:1055E00002467B685B6B9A420FD04FF0B043D3F812
:1055F000903023F440737B61FFF7A5FFFFF7B3FF03
:105600004FF0B0427B69C2F890307B6903F002032F
:10561000002B14D0FDF734FEF8600BE0FDF730FEF0
:105620000246FB68D31A41F28832934202D903231F
:10563000FB7404E0FFF7B4FE0346012BEED1FB7CC4
:10564000002B05D17B685B6B1846FFF75BFF04E01E
:10565000FB7CBB7401E0FB7CBB747B681B6803F0C4
:105660000103002B04D07B685B681846FFF7A9FE96
:105670007B681B6803F00203002B04D07B689B68E7
:105680001846FFF79EFE7B681B6803F02003002B83
:1056900004D07B681B691846FFF7C0FE7B681B6857
:1056A00003F40073002B04D07B681B6A1846FFF7D5
:1056B000E6FE7B681B6803F48063002B04D07B68E4
:1056C0005B6A1846FFF7DBFE7B681B6803F4006328
:1056D000002B04D07B689B6A1846FFF7D0FE7B68DE
:1056E0001B6803F04003002B04D07B685B691846FD
:1056F000FFF7A9FE7B681B6803F08003002B04D032
:105700007B689B691846FFF79EFE7B681B6803F465
:105710008073002B04D07B68DB691846FFF793FE8B
:105720007B681B6803F01003002B11D07B68DB68DB
:105730001846FFF75EFE7B68DB68B3F5807F07D114
:105740004FF0B043DB684FF0B04243F08073D3605A
:105750007B681B6803F40043002B10D07B681B6B35
:105760001846FFF7A5FE7B681B6B002B07D14FF097
:10577000B043DB684FF0B04243F08073D3607B6886
:105780001B6803F48043002B11D07B68DB6A18464A
:10579000FFF7A3FE7B68DB6AB3F1005F07D14FF030
:1057A000B043DB684FF0B04243F48033D360BB7C3E
:1057B00018461837BD4680BD0004005880B483B039
:1057C00000AF7860064B9B6823F4006204497B6855
:1057D00013438B6000BF0C37BD4680BC704700BFD1
:1057E0000004005880B400AF054BD3F89030044A51
:1057F00043F40043C2F8903000BFBD4680BC704700
:105800000004005880B400AF054BD3F89030044A30
:1058100023F40043C2F8903000BFBD4680BC7047FF
:105820000004005880B400AF034B4FF400629A614B
:1058300000BFBD4680BC70470004005880B400AF74
:10584000064B5B6903F00203022B01D1012300E048
:1058500000231846BD4680BC704700BF00040058B6
:1058600080B400AF064B5B6903F00403042B01D145
:10587000012300E000231846BD4680BC704700BFEE
:105880000004005880B400AF4FF0B043D3F8943018
:105890004FF0B04223F40043C2F8943000BFBD463D
:1058A00080BC704780B400AF4FF0B043D3F8943061
:1058B00003F48043B3F5804F01D1012300E00023BE
:1058C0001846BD4680BC704780B483B000AF786096
:1058D000064BD3F8902005497B681343C1F89030FC
:1058E00000BF0C37BD4680BC704700BF00080058A1
:1058F00080B584B000AF78607B68002B03D10123B2
:10590000FB73FB7B52E00023FB737B689B79BB73CB
:10591000BB7B002B02D0BB7B032B09D17B68002211
:105920005A717868FDF7D4FB4FF48050FFF7CCFF35
:10593000BB7B002B26D17B6802229A71FFF7A2FF66
:105940001C4B1A681346DB009B1A9B00DB0C64227D
:1059500002FB03F3BB60BB68002B05D10123FB7383
:105960007B6801229A6007E0BB68013BBB60FFF7E0
:1059700099FF0346002BEED1FFF734FF4FF4006090
:10598000FFF71CFFFFF74EFFFB7B002B0AD17B6864
:105990001B68184600F0ACFA7B6801221A717B681C
:1059A00000229A607B6801229A71FB7B18461037AF
:1059B000BD4680BD0C00002080B586B000AFF86009
:1059C0007A601A460B467B8113463B81FB689B79C4
:1059D000DBB2012B4AD1FB685B79012B01D1022399
:1059E00045E0FB6801225A71FB6802229A71F8684F
:1059F00000F04CFBFFF706FF0D21F86800F098FA65
:105A00007B891B0A9BB2DBB21946F86800F090FA5A
:105A10007B89DBB21946F86800F08AFA0023BB8262
:105A20000AE0BB8A7A6813441B781946F86800F0CC
:105A30007FFABB8A0133BB82BA8A3B899A42F0D390
:105A4000FFF7D0FEF86800F045FBFB689B68002B71
:105A500002D00123FB7501E00023FB75FB680122E6
:105A60009A71FB6800225A71FB7D00E00223184600
:105A70001837BD4680BD80B588B000AFF8607A6049
:105A80001A460B467B8113463B817B68BB61FB68F2
:105A90009B79DBB2012B4AD1FB685B79012B01D1E9
:105AA000022345E0FB6801225A71F86800F0EEFA23
:105AB000FFF7A8FE1D21F86800F03AFA7B891B0A5F
:105AC0009BB2DBB21946F86800F032FA7B89DBB290
:105AD0001946F86800F02CFA0021F86800F028FA5E
